:1000000081317129080008007E148031003086009B
:10001000003087008B1CAC2820001C1D8B1AAB28DD
:10002000181017082300BE00200016082300BD008A
:10003000200097019601181423003D083E04031D7B
:100040002528FF30BD00FF30BE003E082000E5003F
:1000500023003D082000E400E536E40CE536E40C1E
:10006000E536E40C6408F7006508F800CA3084003F
:100070009F308500003FF900013FFA008A31D3220A
:10008000803177082100EF00A0306F02031880282C
:100090006F08031980286F082000E400E501E435AB
:1000A000E50D21006E082000E600E7016608F70074
:1000B0006708F8004030F9000130FA0089318321E7
:1000C000803140302000E8009830E9007708680768
:1000D000EA007808693DEB006A08640784006B0851
:1000E000653D8500003F2300BB00013FBC003B088D
:1000F00020009B0023003C0820009C0022008C1262
:100100002000360303198D28D43084009F308500E9
:10011000000821006F020318922820001C11911082
:1001200022008C1622006B0803199D2820001C1148
:10013000911022008C160130EB022000B6018F31A5
:1001400000278031CF3084009F3085001200031DCE
:10015000AB2820000E158B102000111CD428220083
:100160000E1001302000B6002100EF01ED01F50175
:10017000CF3084009F3085001200031DC12820006D
:100180000E11CE3084009F30850000082200EB0065
:10019000CE3084009F3085001200031DD1288C12C0
:1001A000D2288C1620001110911C1C291C11220031
:1001B0000E143D3021006F02031CE3281A30890B16
:1001C000DF280032E728A0300032890BE428023013
:1001D00021006D060319F128033022006C02031C74
:1001E0000E10C83084009F30850000082000E40015
:1001F00021006F0820006402031802290130220048
:10020000EC0704292200EC01CF3084009F308500E8
:100210001200031D0D2920000E1121006F08733EEE
:10022000840086300318013E8500000820009500F8
:100230000B118B1691108B100B198B1E33290B1180
:100240008B128B10CC3084009F3085001200013A55
:10025000031D2E290730210095043329210015089C
:10026000F8390638950021006F082000E400E50108
:10027000E435E50D21006E082000E600E701660880
:10028000F7006708F8004030F9000130FA008931C2
:10029000832140302000E8009830E90077086807A3
:1002A000EA007808693DEB006A08640784006B087F
:1002B000653D8500003F2500A800013FA900210001
:1002C0006F082000E400E50164082500A00020007C
:1002D00065082500A100200036082500A3007E1037
:1002E0000900813173298831EE208131B4008831D1
:1002F000EF208131B5008831F0208131B600F00166
:10030000F101F201F301F401F501F601B701B801C1
:100310002100ED01EE01EF01603084000130850025
:1003200010308731F9278131A030840001308500F9
:1003300021308731F9278131203084000230850057
:1003400040308731F9278131A030840002308500A8
:1003500040308731F9278131203084000330850017
:1003600040308731F9277E10200084317C2C063004
:100370007306031D08003D008E18080023003F0887
:10038000031D102B2000AC1B08002030EC000330B4
:10039000ED004030EE008B313823813101302300F5
:1003A000BF002100E5016508203E8600870102307C
:1003B000873D81010130E5074030650203180800E0
:1003C000D3292000B01B0800260021082000E000EF
:1003D000E1010530E035E10D890BEA296008403E76
:1003E0002100E30018302000613D2100E4003E3090
:1003F00026002102031C0A2AFF302400A00020301E
:100400002000EC000230ED004030EE008A31A622E0
:100410008131142A210064082000DA0021006308D9
:100420002000D9008B31B4232300BF010800200035
:10043000B01B08008B13260021082000E000E1011A
:100440000530E035E10D890B212A6008403E21008E
:10045000E30018302000613D2100E4003E3026001A
:100460002102031C412AFF302400A000203020007C
:10047000EC000230ED004030EE008A31A6228131DE
:10048000A22A2100640823009200210063082300AF
:1004900091002400A001230012082400A1002300E1
:1004A00011082400A200A301230015131516893199
:1004B0003321813123001513151295162100E50112
:1004C00024302000E0000330E10021006508200016
:1004D000600786000030613D87000108230093001B
:1004E0003430940089313321813101302300910768
:1004F0000030923D01302100E5071F306502031CEA
:10050000602A2300951224302000E0000330E1002F
:10051000210065082000600786000030613D8700EB
:100520000108230093003430940089313321813154
:10053000210064082000DA00210063082000D900AF
:100540008B31B4232300BF018B1708002500AE01B7
:10055000AF012000B01B0800A030EC000230ED001D
:100560004030EE008A31A6228131142A2000B01BCF
:1005700008008B132030EC000230ED008B316E232D
:10058000813105302000EC008030ED008931DA2126
:10059000813120006D082100E20020006C0821005C
:1005A000E10062082400A900210061082400A800DD
:1005B00006302000EC008030ED008931DA218131F5
:1005C00020006D082100E20020006C082100E100FD
:1005D00062082400AB00210061082400AA00013059
:1005E000AC003830AD00362A2000B01B08008B1359
:1005F0002430EC000330ED008C31EE2481312100F9
:10060000E00060082400A000A101A201A3012430A1
:100610002000EC000230ED008B316E238131362A50
:1006200026002008903A0319E129023A0319172AF3
:10063000013A0319A62A073A0319B62A013A0319FF
:10064000F42AFC2908002000E30160086104031D6E
:100650002D2B0130E0000030E10000306102A030BD
:1006600003196002031C382B9F30E0000030E100CA
:100670003608031D572B35080319572B2300320862
:100680002100E600230031082100E5002300B10A23
:100690000319B20A0F3021006602A1300319650266
:1006A000031C572B2000B5012300B101B20120002B
:1006B0003603031DF72B3508031DF72B23003208E3
:1006C0002100E600230031082100E5002300B10AE3
:1006D0000319B20A1F302100660241300319650276
:1006E000031CF72B01302000B5002300B101B2013B
:1006F000F72B21006E08E500E60165082000D80010
:10070000210066082000D900A030DA000030DB00AC
:1007100089319E21833140302100E7009D30E8007F
:100720002000580821006707E9002000590821002F
:10073000683DEA00690820006007840021006A081B
:100740002000613D85000008F52B3808E3006308B0
:10075000FE3E2100E500FF3003180030E600660889
:10076000803A803C031DB72B650820006202031C01
:10077000092C0230F12B3708E3006308023E210008
:10078000E500003003180130E6006608803AE70013
:1007900080306702031DD02B200062082100650213
:1007A000031C092C0330F12B3808E300D5308400FA
:1007B0009F3085001200013A031D092C6308FE3E9C
:1007C0002100E500FF3003180030E6006608803A9B
:1007D000803C031DEE2B650820006202031C092CDF
:1007E00004302000B500092C3708E300092C200054
:1007F0003508003A0319792B013A0319A52B033A5E
:100800000319BB2B013A0319D42B073A0319F42B14
:10081000092C20006208023E2100E5000030031888
:100820000130E6006608803AE70080306702031D69
:100830001D2C200063082100650203182C2C2000C9
:100840003403031D292C22000E128E12A030890BB6
:10085000272C2000B4015D2C20006208FE3E210000
:10086000E500FF3003180030E6006608803A803C5F
:10087000031D3D2C65082000630203184B2C20004B
:100880003408031D492C22000E128E12A030890B51
:10089000472C01304C2C03302000B4005D2C22008A
:1008A0000E165B2C22000E12572C22000E168E16EE
:1008B0006B2C22000E128E126B2C3408003A031996
:1008C0004F2C013A0319522C033A0319592C013ABF
:1008D0000319552C552C200062082500A400200087
:1008E00063082500A500200035082500A60020008B
:1008F00034082500A70008008B31FB2384318531A3
:100900009A25843122008C160B162100151711141C
:100910009114200018140B178B172300C301C40176
:100920008E318A26843164008131B721843164009C
:1009300021006F08EB00EC016B082000E0002100B3
:100940006C082000E100073089316A218431873149
:10095000132784312000E200833123238431592D71
:100960002100EE01CF3084009F3085001200013A53
:10097000031DBC2C20000E112500AC01652D2300A9
:100980008C0120000C1ECB2C01302100EE00FF302A
:100990002500AC00CF2C2100EE012500AC01CF30AA
:1009A00084009F3085001200013A031D652D21004F
:1009B0006E1CDD2C20000E15652D20000E11652DFE
:1009C000103023008C00033089316A2184312300E8
:1009D000C500D33084009F30850000084502031C09
:1009E000F32C0330062DD23084009F3085000008A0
:1009F0004502031CFD2C0230062DD13084009F30AF
:100A0000850000084502031C092D01302100EE007D
:100A10000B2D2100EE01CF3084009F3085001200A5
:100A2000013A0319462D542D20000E11542D230098
:100A300044082100EC00230043082100EB002300C0
:100A4000C30A0319C40A003021006C02C93003191B
:100A50006B02031C542D2300C301C4010430200089
:100A60008E06542D230044082100EC002300430887
:100A70002100EB002300C30A0319C40A003021003F
:100A80006C026530272D20000E15542D6E08003A9B
:100A90000319142D013A0319172D033A0319322DA6
:100AA000013A0319432D142D230045082500AC00FD
:100AB000652DD03084009F3085000008003A03196E
:100AC000B02C013A0319BF2CE02C21006E08250040
:100AD000A200C73084009F3085001200031D812DC5
:100AE000031020008C1903140030093D2100EB0095
:100AF000EC016B082300C10021006C082300C20038
:100B0000912D031020008C1D03140030093D21009D
:100B1000EB00EC016B082300C10021006C082300EE
:100B2000C20041082500AA0021006D082500AB0085
:100B30006400902C05302000B800A030B700A82D2C
:100B40000130A52D0230A52D04302100E000B72D85
:100B5000D03084009F3085000008003A0319A02D92
:100B6000013A0319A22D033A0319A42DA02DE10186
:100B7000600861020318652E0130E2006108200060
:100B8000DC00DD015C08D8005D08D900A030DA0087
:100B90000030DB0089319E21853140302000DE00AD
:100BA0009D30DF0058085E07E00059085F3DE10016
:100BB0002100620820006007840061080318013EDC
:100BC00085000008380203180B2E21006108200060
:100BD000DC00DD015C08D8005D08D900A030DA0037
:100BE0000030DB0089319E21853140302000DE005D
:100BF0009D30DF0058085E07E00059085F3DE100C6
:100C00002100620820006007840061080318013E8B
:100C100085000008B800210061082000DC00DD012B
:100C20005C08D8005D08D900A030DA000030DB0095
:100C300089319E21853140302000DE009D30DF006B
:100C400058085E07E00059085F3DE1002100620896
:100C500020006007840061080318013E8500000839
:100C6000E2003708620203185B2E210061082000B1
:100C7000DC00DD015C08D8005D08D900A030DA0096
:100C80000030DB0089319E21853140302000DE00BC
:100C90009D30DF0058085E07E00059085F3DE10025
:100CA0002100620820006007840061080318013EEB
:100CB00085000008B70001302100E2079F30620282
:100CC000031CBE2D0130E107B82DA13020003802F1
:100CD000031C6C2EA030B800053037020318080042
:100CE0000530B700080000340034003451347C343F
:100CF0009634A834B434BD34C534CA34CF34D33474
:100D0000D634D934DC34DE34E034E234E334E43451
:100D1000E634E734E834E934EA34EA34EB34EC34EA
:100D2000ED34ED34EE34EE34EF34EF34F034F034AF
:100D3000F034F134F134F134F234F234F234F33487
:100D4000F334F334F334F434F434F434F434F43466
:100D5000F534F534F534F534F534F634F634F63448
:100D6000F634F634F634F634F634F734F734F73430
:100D7000F734F734F734F734F734F734F834F83419
:100D8000F834F834F834F834F834F834F834F83403
:100D9000F834F834F934F934F934F934F934F934ED
:100DA000F934F934F934F934F934F934F934F934DB
:100DB000F934F934F934F934FA34FA34FA34FA34C7
:100DC000FA34FA34FA34FA34FA34FA34FA34FA34B3
:100DD000FA34FA34FA34FA34FA34FA34FA34FA34A3
:100DE000FA34FA34FA34FA34FA34FA34FB34FB3491
:100DF000FB34FB34FB34FB34FB34FB34FB34FB347B
:100E0000FB34FB34FB34FB34FB34FB34FB34FB346A
:100E1000FB34FB34FB34FB34FB34FB34FB34FB345A
:100E2000FB34FB34FB342100E00023002C082000BD
:100E3000DC00DD015C082100E10020005D082100EC
:100E4000E2000430E3000030E4006308A83E8600BE
:100E5000013087006308A73E840001308500000848
:100E600081006308A83E8600013087000108200049
:100E7000DC00DD015C082100E10720005D082100A5
:100E8000E23D0130E3020030E43B63086404031DEB
:100E9000252F05302000D8000030D900210062083D
:100EA0002000DB00210061082000DA008B310523DF
:100EB0008731200059082100E20020005808210055
:100EC000E10060082300A800210060082000DC0089
:100ED000DD0121006108083E2000DE000030210015
:100EE000623D2000DF005D085F02031D792F5C0872
:100EF0005E02031C922F21006108F83E2000DC00F6
:100F0000FF302100623D2000DD002100600820004C
:100F1000DE00DF015D085F02031D902F5C085E02AA
:100F20000318952F210061080800210060080800BF
:100F30002300200E890C0339003A031D0800D52F29
:100F400001302200E8000430F30008008C319924BD
:100F500008008A312822080001302200E80076309B
:100F60002300B9000030BA002200E610013023004F
:100F7000B70008008D314A2508008E311926080077
:100F800001302200E800230024086F3EB900013040
:100F9000B32F01302200E800230024086F3E8600B2
:100FA000013087002208810008002108003A031957
:100FB000BA2F013A0319BD2F023A0319BD2F063A81
:100FC0000319A02F033A0319A62F013A0319F82F8A
:100FD0000F3A0319AC2F013A0319A92F033A031949
:100FE000C02F013A0319C92F073A0319F82FF82F18
:100FF0000800640080010131890BFA2F00340800D9
:1011D0002300BF0108008F317E270800033401344B
:1011E000013422006503031908003D008E19080030
:1011F0008931402108008731FF2788313D008E105A
:101200001211101D0800101101292000EC006C03C0
:10121000031D08008931542189318831E8200800F4
:101220003D008E1D16298931272189312200E501D3
:101230008831F120080020006C086D0403190800B3
:10124000640001302000EC020030ED3B1B293D0022
:101250008E108E01FF302000EC00FF30ED00893150
:101260001B21F3010800640023001515553096007A
:10127000AA30960095140000000023001511080004
:1012800022006503031D47298931272189313D004B
:101290008E011530910092018E158A315122013054
:1012A000F3002200E50108002200E0011E303D00AD
:1012B000990040302000AD00A030AE000030AF00FB
:1012C0000830AC00AC172030B2000130B300403021
:1012D000B00008002000ED006D08EC00EC0DEC0DF6
:1012E00021001D0820006C0683396C0621009D003A
:1012F0001D14F0300032890B7A2921009D149D18AD
:101300007F291C080800FB01FC01771C8B29790848
:10131000FB077A08FC3D0130F935FA0D890B8C2961
:101320000130F836F70C890B912977087804031DF2
:1013300085297C08F8007B08F70008002000EC01F4
:10134000ED01581CA7295A08EC075B08ED3D013058
:10135000DA35DB0D890BA8290130D936D80C890B79
:10136000AD2958085904031DA1296D08D9006C083E
:10137000D80008002000A801F401A01FC229A00184
:101380002200E7012000A41FC929A4010130220086
:10139000E7002200E901E8012300B701B8013D00A0
:1013A0000E128731982789318831EB2089318D31B0
:1013B000AA2508000B0D0B0D01392000EE008B1340
:1013C0006D082300920020006C082300910015177F
:1013D0001514000000002300151320006E08031DE3
:1013E0008B17FF30230013052000D8003F30230067
:1013F00014052000D9005808EC005908ED00080039
:1014000004307306031D0F2A230022083D009600B6
:10141000160803190D2A05300E2A0330F3002200A6
:101420006903031D08008C3144248A31023074069C
:10143000031D1F2A04302000A800A8170800200060
:10144000281B242A4830252A0830A800A81708009D
:1014500001302200E8003D0099019A019B019C01A6
:101460009D019E019F012200E10161086F3E8600FF
:101470000130870081010130E10761080319352A35
:1014800023002208F6007608893105218A312300DD
:101490002208031D4E2A0530F30008000630F30031
:1014A00008000330F3003D00970190017B3092006B
:1014B000960199019A019B019C019D019E019F014A
:1014C000163098000E173D00901D692A9011640097
:1014D000632A0E130E1204302300AD0000308A314F
:1014E0007B228A3101302200E700E601F60100305C
:1014F0008931052108002000EC0008302300AE00EF
:101500004830AF000030B00020006C08031D8F2A67
:1015100040302300AF000030B0002030912A24304A
:101520002300B3000030B40033088600340887007D
:101530002D08C03F2E08C13F2F08C23F3008C33FCF
:1015400033088600340887008117080041302000E6
:101550006E02031CAD2A4030EE00D8016E0858021E
:101560000318C22A5808203E860001308700580818
:101570006C07840000306D3D85000008810001305B
:10158000D807AE2A6E08B1004030B0050310301FF6
:101590000314031CCE2A20003017D02A2000301359
:1015A000B015B0170800FB01FC0177087804031997
:1015B000002B0130FD00F81BE52A0130F735F80D4E
:1015C000890BDE2A0130FD07DB2A0130FB35FC0DDB
:1015D000890BE62A78087A02031DF02A7708790237
:1015E000031CF72A7708F9027808FA3B7B140130CC
:1015F000F836F70C890BF82A0130FD02031DE52AA5
:101600007C08F8007B08F70008002000ED01EE01DF
:10161000580859040319332B0130EC00D91B182B3F
:101620000130D835D90D890B112B0130EC070E2B69
:101630000130ED35EE0D890B192B59085B02031DA6
:10164000232B58085A02031C2A2B5808DA0259087F
:10165000DB3B6D140130D936D80C890B2B2B0130B4
:10166000EC02031D182B6E08D9006D08D800080085
:101670002200E0012000AC1B08006E082D020318B8
:10168000432B2D08EE002200E00120006E0822000E
:10169000600203185C2B600820006C078600003095
:1016A0006D3D870022006008A03E8400850100088F
:1016B00081000130E007452B40302000AD00403074
:1016C000AC0503102C1F0314031C692B20002C17DE
:1016D0006B2B20002C13AC15AC17080020006C08F5
:1016E0006D04031908000B0D0B0D0139DC008B1381
:1016F000230015172000DF015F08003EDD00803069
:1017000003188130DE005E082300920020005D088F
:1017100023009100151400000000FF302300130582
:101720002000D8003F30230014052000D9005F08B6
:10173000DA00DB01DA35DB0D5A086C0786005B083E
:101740006D3D87005808C03F5908C13F0130DF0791
:1017500004305F02031C7C2B2300151320005C085F
:10176000031908008B17080020005A082300920074
:1017700020005908230091000B0D0B0D01392000AA
:10178000DD008B132400A001230012082400A10017
:10179000230011082400A200A3012000DE01230081
:1017A00015140000000024302000DB000230DC00B3
:1017B0005E085B07860000305C3D8700230013084D
:1017C0008100013091070030923D01302000DE079A
:1017D00020305E02031CCF2B2030EC000230ED00E5
:1017E0004030EE008A31A6228B3120005D080319BB
:1017F00008008B170800FC3021009900903027006A
:101800009B0021001A1F012C1708C13918389700B6
:101810008831E8208B31893110218B3121009513DB
:10182000103024008C00183021008C001030230070
:101830008C0020008C010A3021008E00083023002B
:101840008E0020008E0121009F0120309E001D0887
:1018500083391C389D009D101D1022009717971684
:1018600017163F302000980530309804981118154D
:1018700018109C019B0191102100951295110730C1
:1018800095040B118B1208000830F2000030230081
:10189000380208300319370203185A2C3708F200AF
:1018A0007408031D552C0130592C7403031D5A2C48
:1018B0000230F40072082000A9007208EC00ED016B
:1018C0006C082300B70220006D082300B83B50309D
:1018D000F0002200E6187F2C952C70088600870106
:1018E0002300390884003A0885000008810001308F
:1018F000F0070130B9070030BA3D0130F20272083A
:10190000031908006D2C7008860087012300390830
:1019100084003A088500000881000130F00701309A
:10192000B9070030BA3D0130F2027208031908000D
:10193000832C803023002006031D0800E02C01309A
:101940002200E800B0302300B9009030BA00123015
:10195000B700EB2C2208031DEB2C01302200E8001D
:101960006A302300B9009030BA002930B700003047
:10197000B800EB2C01302200E800230022082000F0
:10198000EC00ED01EC35ED0DC2306C078400103039
:101990006D3D80388500003F2300B900013FBA004B
:1019A000390884003A08850000082000EC00ED01A9
:1019B0006C082300B70020006D082300B800EB2C52
:1019C0002308013A03199F2C033A0319AA2C013A60
:1019D0000319BA2CEB2C2200E614080020006C0836
:1019E0006D04031DF52CFF3008000B0D0B0D0139A4
:1019F000DE008B1323001517151295122000DF014E
:101A00005F08003EDA00803003188130DB005F0899
:101A1000D800D901D835D90D58086C078600590867
:101A20006D3D8700403FDC00413FDD005B08230047
:101A3000920020005A082300910020005D083F39E1
:101A40002300940020005C082300930015155530F6
:101A50009600AA3096009514000000002300951807
:101A60002E2D1511951D3B2D151320005E08031911
:101A7000F32C8B17F32C01302000DF0704305F02BA
:101A8000031C002D2300151320005E08031D8B1777
:101A9000003008002000D001D1018E2D013022003D
:101AA000E800661C9B2D2000D0149B2D01302200E5
:101AB000E8009B2D01302200E8002300240D240DB6
:101AC00001392000D800D901D835D90DD835D90D24
:101AD000230024080F392000DA00DB01DA35DB0DA2
:101AE000DA35DB0DDA35DB0D2430DC000030DD00CB
:101AF0005A085C07DE005B085D3DDF0058085E07A2
:101B0000E00059085F3DE1006008F00070088600C1
:101B10008701011D9B2D0130D0009B2D2300200843
:101B20001F39003A03194E2D013A0319562D033A75
:101B300003195A2D9B2D22006803031D0800003055
:101B40002300BA005030B9002200E6100230230012
:101B5000B700080022006808031DC62D04302000CD
:101B6000A800A81704302300AD0022006703031D5E
:101B7000BF2D01308A317B222200E70108000030AE
:101B80008A317B2201302200E70008002300A01FD9
:101B9000EF2D01302200E900230038082702031D41
:101BA000D32D370826020318D92D2708B800260898
:101BB000B7008C3144248D3148302300AD00013012
:101BC0008A317B228D3100308A317B220030200027
:101BD000AB005030AA004830A800A8170800023017
:101BE0002200E90004302300AD0026082704031D6D
:101BF000FB2D4830AD0022006703031D062E013087
:101C00008A317B228D312200E7010D2E00308A318E
:101C10007B228D3101302200E700230026082704B3
:101C2000031D080000302000A9004830A800A817B4
:101C3000080023002203031D2F2E20081F39003A1D
:101C4000031D2F2E01302200E8000330230021065F
:101C5000031D2D2E220066142F2E22006610230055
:101C60002208031D080020081F39023A031D08003E
:101C700024080F39003A0319080001302200E80057
:101C80002300240D240D01392000D800D901D835B6
:101C9000D90DD835D90D230024080F392000DA00DA
:101CA000DB01DA35DB0DDA35DB0DDA35DB0D24301F
:101CB000DC000030DD005A085C07DE005B085D3D9B
:101CC000DF0058085E07E00059085F3DE10060084A
:101CD000F000033023002106031D782E70088600D3
:101CE0008701043081007008860087018117080091
:101CF000A41F802E700886008701403081000800F4
:101D0000700886008701083081007008860087010E
:101D1000811708008831F1208E31730803190800FB
:101D20003D00101D962E8831FB208E313D008E180F
:101D30000800101C9E2E8A3151228E313D00100861
:101D400003307302031C08002200EA013D00901DCD
:101D500008000F082300C0003D000F087C39031D58
:101D6000EE2E8F18B52E2030B62E24302200E4003F
:101D70003D0090112200640886008701010C890C47
:101D80000F390D3A031DF82EE3016308A03E8600CB
:101D900087010130873D6408023E84008501003FD1
:101DA0002000E200013FE300620884006308850030
:101DB0000008810022006408023E8600870101308D
:101DC000810741310318810A0130E30708306302BB
:101DD000031CC52E8931BA218E31F82E04300F062E
:101DE000031DF72E90118A3100228E31F82E9011AA
:101DF00001302200EA0704306A0203180800A62E08
:101E0000C73084009F308500120003190E2F031085
:101E100020008C1D03140030093D122F00302000DB
:101E20008C190130F800C63084009F308500120004
:101E300003196B2F7808031D212F02302100ED00BC
:101E40006B2F2100ED016B2F7808031D0800C230B5
:101E500084009F3085000008F7006F0877020318A0
:101E60000800C33084009F30850012000319412F01
:101E70000130ED00C33084009F3085000008F5007C
:101E800008000230ED00C43084009F308500000857
:101E9000F50008007803031D4F2FED0108007508B9
:101EA0000319412F0130F50208007508031D522F58
:101EB0000330ED00C53084009F3085000008F50038
:101EC00008007508031D522F0430ED000800780348
:101ED000031D08004D2F21006D08003A0319242F1F
:101EE000013A03194A2F033A0319552F013A0319EE
:101EF000612F073A0319672F4D2F08002300200890
:101F00001F39013A031D08002408031D080006308C
:101F100021060319AA2FB72F02302200E8007C30D7
:101F20002300B9009030BA000930A62F02302200F9
:101F3000E8007603031DA12F93302300B9009030F1
:101F4000BA007603031DB52F1D302300B700003003
:101F5000B800B52F2308213A03198C2F033A03192F
:101F6000962F013A0319B52FB52F2200E61423004E
:101F7000200E890C0339013A031D0800EB2F803134
:101F80000220080080310320080002302200E8000F
:101F90006E302300B9000130BA002200E610013093
:101FA0002300B700080002302200E80023002308C5
:101FB0002200EE00080002302200E8006D3023000D
:101FC000B9000130CC2F02302200E80023002208A3
:101FD0002200ED0008002108013A0319BF2F033A3F
:101FE0000319C52F013A0319DB2F0A3A0319C22F2F
:101FF000033A0319D32F013A0319E32FFF2F0800E7
:10200000363403344F340034533400345234003403
:102010002D34003443340034443400344934003423
:1020200020340034533400345934003453340034F1
:1020300054340034453400344D34003420340034FA
:102040005634003465340034723400342E34003495
:10205000313400342E340034353400342E3400341E
:102060003634003463340034003400343434033400
:102070004F34003470340034653400346E3400342E
:1020800020340034533400346F3400347534003459
:102090007234003463340034653400342034003446
:1020A000773400342F340034203400345234003478
:1020B000693400346C3400346134003473340034D7
:1020C00073340034613400347234003475340034B5
:1020D0002E340034093402342934003401340134FC
:1020E000003480343234093404340034003402348F
:1020F0000334003400340034093421341134013401
:102100000034013422341D34003407340534813462
:1021100003344034003401340734053401340334CB
:1021200040340034013406340034FF3409340134BF
:10213000A1340134193401342934403415340034C5
:102140002634FF34003475340834953440348134F7
:102150000034193401342934403491340034C0340B
:1021600012340134003402340034003400340834B2
:10217000D83404343C3400340134013401340234A2
:1021800000340134C8349034363490340034903400
:08219000043403340934043463
:1030800000340034003400340034003400340034A0
:103090000034003400340034003400340034003490
:1030A0000034003400340034003400340034003480
:1030B0000034003400340034003400340034003470
:103AF000373437343734373437343A343D3440345C
:103B0000443447344A344E345134543458345B349A
:103B10005F346234663469346D34703474347734AD
:103B20007B347B347B347B347B347B347B347B341D
:103B30007B347B347B347B347B347B347B347B340D
:103B40007B347B347B347B347B347B347B347B34FD
:103B50007B347B347B347B347B347B347B347B34ED
:103B60007B347B347B347B347B347B347B347B34DD
:103B70007B347734743471346D346A34673463342D
:103B800060345D345A345A345A345A345A345A34BC
:103B90005A345A345A345A345A345A345A345A34B5
:103BA0005A345A345A345A345A345A345A345A34A5
:103BB0005A345A345A345A345A345A345A345A3495
:103BC000373437343734373437343734373437349D
:103BD000373437343734373437343734373437348D
:103BE000373437343734373437343734373437347D
:103BF000373437343734373437343734373437346D
:103C0000373437343734373437343734373437345C
:103C1000373437343734373437343734373437344C
:103C2000373437343734373437343734373437343C
:103C3000373437343734373437343A343D3440341A
:103C4000443447344A344E345134543458345B3459
:103C50005F346234663469346D347034743477346C
:103C60007B347B347B347B347B347B347B347B34DC
:103C70007B347B347B347B347B347B347B347B34CC
:103C80007B347B347B347B347B347B347B347B34BC
:103C90007B347B347B347B347B347B347B347B34AC
:103CA0007B347B347B347B347B347B347B347B349C
:103CB0007B347734743471346D346A3467346334EC
:103CC00060345D345A345A345A345A345A345A347B
:103CD0005A345A345A345A345A345A345A345A3474
:103CE0005A345A345A345A345A345A345A345A3464
:103CF0005A345A345A345A345A345A345A345A3454
:103D0000373437343734373437343734373437345B
:103D1000373437343734373437343734373437344B
:103D2000373437343734373437343734373437343B
:103D3000373437343734373437343734373437342B
:103D4000373437343734373437343734373437341B
:103D5000373437343734373437343734373437340B
:103D600037343734373437343734373437343734FB
:103D7000373437343734373437343A343D344034D9
:103D8000443447344A344E345134543458345B3418
:103D90005F346234663469346D347034743477342B
:103DA0007B347B347B347B347B347B347B347B349B
:103DB0007B347B347B347B347B347B347B347B348B
:103DC0007B347B347B347B347B347B347B347B347B
:103DD0007B347B347B347B347B347B347B347B346B
:103DE0007B347B347B347B347B347B347B347B345B
:103DF0007B347734743471346D346A3467346334AB
:103E000060345D345A345A345A345A345A345A3439
:103E10005A345A345A345A345A345A345A345A3432
:103E20005A345A345A345A345A345A345A345A3422
:103E30005A345A345A345A345A345A345A345A3412
:103E4000373437343734373437343734373437341A
:103E5000373437343734373437343734373437340A
:103E600037343734373437343734373437343734FA
:103E700037343734373437343734373437343734EA
:103E800037343734373437343734373437343734DA
:103E900037343734373437343734373437343734CA
:103EA00037343734373437343734373437343734BA
:103EB000373437343734373437343A343D34403498
:103EC000443447344A344E345134543458345B34D7
:103ED0005F346234663469346D34703474347734EA
:103EE0007B347B347B347B347B347B347B347B345A
:103EF0007B347B347B347B347B347B347B347B344A
:103F00007B347B347B347B347B347B347B347B3439
:103F10007B347B347B347B347B347B347B347B3429
:103F20007B347B347B347B347B347B347B347B3419
:103F30007B347734743471346D346A346734633469
:103F400060345D345A345A345A345A345A345A34F8
:103F50005A345A345A345A345A345A345A345A34F1
:103F60005A345A345A345A345A345A345A345A34E1
:103F70005A345A345A345A345A345A345A345A34D1
:103F800001343834963400341834B43400340034F6
:103F9000783400343E344934023424340A34003452
:103FA000013440348034C0340034003400340034F0
:103FB0000034003400340034003400340034003461
:103FC0000034003400340034003400340034003451
:103FD0000034003400340034003400340034003441
:103FE0000034003400340034003400340034003431
:103FF0000034003400340034003400340034003421
:020000040001F9
:08000000FF3FFF3FFF3FFF3F00
:04000E009C0FEF1F35
:00000001FF
