:1000000081317229080008007E1480318B1CA828D9
:1000100020001C1D8B1AA728181017082300BE00EB
:10002000200016082300BD00200097019601181437
:1000300023003D083E04031D2128FF30BD00FF3092
:10004000BE003E082000E50023003D082000E4003B
:10005000E536E40CE536E40CE536E40C6408F7001C
:100060006508F800CA3084009F308500003FF90021
:10007000013FFA008B311623803177082100EF0011
:10008000A0306F0203187C286F0803197C286F08C2
:100090002000E400E501E435E50D21006E082000B4
:1000A000E600E7016608F7006708F8004030F9004D
:1000B0000130FA008931EC21803140302000E80025
:1000C0009830E90077086807EA007808693DEB0096
:1000D0006A08640784006B08653D8500003F2300C3
:1000E000BB00013FBC003B0820009B0023003C08F4
:1000F00020009C0022008C1220003603031989285E
:10010000D43084009F308500000821006F0203185E
:100110008E2820001C11911022008C1622006B08E2
:100120000319992820001C11911022008C1601300F
:10013000EB022000B6018E317D268031CF30840065
:100140009F3085001200031DA72820000E158B107C
:100150002000111CD02822000E1001302000B60013
:100160002100EF01ED01F501CF3084009F308500C3
:100170001200031DBD2820000E11CE3084009F30D8
:10018000850000082200EB00CE3084009F308500FF
:100190001200031DCD288C12CE288C1620001110C1
:1001A000911C1D291C1122000E143D3021006F02EC
:1001B000031CDF281A30890BDB280032E328A0302B
:1001C0000032890BE028023021006D060319ED286A
:1001D000033022006C02031C0E10C83084009F30D4
:1001E000850000082000E40021006F082000640260
:1001F0000318FE2801302200EC0700292200EC0140
:10020000CF3084009F3085001200031D0929200093
:100210000E1121006F082000E400E501E435E50D32
:10022000F930640784000230653D8038850000089D
:1002300095000B118B1691108B100B198B1E342906
:100240000B118B128B10CC3084009F308500120074
:10025000013A031D2F29073021009504342921007C
:100260001508F8390638950021006F082000E400D1
:10027000E501E435E50D21006E082000E600E70108
:100280006608F7006708F8004030F9000130FA000E
:100290008931EC2140302000E8009830E9007708EF
:1002A0006807EA007808693DEB006A086407840083
:1002B0006B08653D8500003F2500A800013FA900AF
:1002C00021006F082000E400E50164082500A0007B
:1002D000200065082500A100200036082500A300A5
:1002E0007E10090081317429893156218131B40091
:1002F000893157218131B500893158218131B600CA
:10030000F001F101F201F301F401F501F601B70189
:10031000B8012100ED01EE01EF01603084000130F1
:10032000850010308731F9278131A03084000130F9
:10033000850021308731F927813120308400023057
:10034000850040308731F9278131A03084000230A8
:10035000850040308731F927813120308400033017
:10036000850040308731F9277E1020008431392CF8
:1003700006307306031D08003D008E180800230098
:100380003F08031DE92A2000AC1B08002030EC00C8
:100390000330ED004030EE008B317B2381310130A2
:1003A0002300BF002000E2016208203E8600870192
:1003B0000230873D81010130E207403062020318BC
:1003C0000800D4292000B01B0800260021082000C6
:1003D000DE00DF010530DE35DF0D890BEB295E081D
:1003E000403EE00018305F3DE1003E302600210233
:1003F000031C082AFF302400A00020302000EC005D
:100400000230ED004030EE008A31E92281310F2ABE
:1004100020006108DA006008D9008B31B123230085
:10042000BF0108002000B01B08008B132600210824
:100430002000DE00DF010530DE35DF0D890B1C2AD0
:100440005E08403EE00018305F3DE1003E3026008F
:100450002102031C392AFF302400A0002030200094
:10046000EC000230ED004030EE008A31E9228131AB
:10047000922A2000610823009200200060082300D7
:1004800091002400A001230012082400A1002300F1
:1004900011082400A200A3012300151315168931A9
:1004A0009B21813123001513151295162000E201BE
:1004B0002430DE000330DF0062085E078600003073
:1004C0005F3D870001082300930034309400893198
:1004D0009B2181310130230091070030923D013092
:1004E0002000E2071F306202031C582A23009512E5
:1004F00024302000DE000330DF0062085E07860043
:1005000000305F3D870001082300930034309400E1
:1005100089319B21813120006108DA006008D9000F
:100520008B31B1232300BF018B1708002000B01BC3
:100530000800A030EC000230ED004030EE008A31BF
:10054000E92281310F2A2000B01B08008B13230001
:100550009101920115172000E201230015140000FB
:10056000000020006208203E860087010230873D9F
:1005700023001308810001302000E2076208203EBA
:10058000860087010230873D230014088100013076
:100590002000E2070130230091070030923D103027
:1005A00020006202031CAD2A6208203E86008701FB
:1005B0000230873D013081000130E2076208203EB1
:1005C000860087010230873D343081000130E20728
:1005D0002E2A26002008903A0319E229023A03192C
:1005E000122A013A0319962A073A0319A32AFA296B
:1005F0000800003400340034003400340034513436
:1006000000347C34003496340034A8340034B434DC
:100610000034BD340034C5340034CA340034CF341F
:100620000034D3340034D6340034D9340034DC34CC
:100630000034DE340034E0340034E2340034E33497
:100640000034E4340034E6340034E7340034E83471
:100650000034E9340034EA340034EA340034EB3452
:100660000034EC340034ED340034ED340034EE3436
:100670000034EE340034EF340034EF340034F0341E
:100680000034F0340034F0340034F1340034F13408
:100690000034F1340034F2340034F2340034F234F3
:1006A0000034F3340034F3340034F3340034F334DE
:1006B0000034F4340034F4340034F4340034F434CA
:1006C0000034F4340034F5340034F5340034F534B7
:1006D0000034F5340034F5340034F6340034F634A4
:1006E0000034F6340034F6340034F6340034F63492
:1006F0000034F6340034F6340034F7340034F73480
:100700000034F7340034F7340034F7340034F7346D
:100710000034F7340034F7340034F7340034F8345C
:100720000034F8340034F8340034F8340034F83449
:100730000034F8340034F8340034F8340034F83439
:100740000034F8340034F8340034F8340034F93428
:100750000034F9340034F9340034F9340034F93415
:100760000034F9340034F9340034F9340034F93405
:100770000034F9340034F9340034F9340034F934F5
:100780000034F9340034F9340034F9340034F934E5
:100790000034F9340034FA340034FA340034FA34D2
:1007A0000034FA340034FA340034FA340034FA34C1
:1007B0000034FA340034FA340034FA340034FA34B1
:1007C0000034FA340034FA340034FA340034FA34A1
:1007D0000034FA340034FA340034FA340034FA3491
:1007E0000034FA340034FA340034FA340034FA3481
:1007F0000034FA340034FA340034FA340034FB3470
:100800000034FB340034FB340034FB340034FB345C
:100810000034FB340034FB340034FB340034FB344C
:100820000034FB340034FB340034FB340034FB343C
:100830000034FB340034FB340034FB340034FB342C
:100840000034FB340034FB340034FB340034FB341C
:100850000034FB340034FB340034FB340034FB340C
:100860000034FB340034FB340034FB340034FB34FC
:1008700000348B31EC2384318631AA268431230065
:10088000C401C50121009D149D18442C07308931F5
:10089000D22184318F317D278431640001302300DF
:1008A000C4070030C53D003045020530031944023D
:1008B000031C422C22008C160B1621001517111454
:1008C0009114200018140B178B172300C401C501C5
:1008D00087318327843164008131B82184316400F9
:1008E00021006F08EB00EC016B082000E000210004
:1008F0006C082000E10007308931D22184318F312A
:100900007D2784312000E200853172258431312D2C
:100910002100EE01CF3084009F3085001200013AA3
:10092000031D942C20000E112500AC013D2D230049
:100930008C0120000C1EA32C01302100EE00FF30A2
:100940002500AC00A72C2100EE012500AC01CF3022
:1009500084009F3085001200013A031D3D2D2100C7
:100960006E1CB52C20000E153D2D20000E113D2DC6
:10097000103023008C0003308931D22184312300D0
:10098000C300D33084009F30850000084302031C5D
:10099000CB2C0330DE2CD23084009F308500000841
:1009A0004302031CD52C0230DE2CD13084009F3052
:1009B000850000084302031CE12C01302100EE00F9
:1009C000E32C2100EE01CF3084009F30850012001F
:1009D000013A03191E2D2C2D20000E112C2D230061
:1009E00045082100EC00230044082100EB0023000F
:1009F000C40A0319C50A003021006C02C93003196A
:100A00006B02031C2C2D2300C401C50104302000FF
:100A10008E062C2D230045082100EC0023004408FD
:100A20002100EB002300C40A0319C50A003021008D
:100A30006C026530FF2C20000E152C2D6E08003A3C
:100A40000319EC2C013A0319EF2C033A03190A2D70
:100A5000013A03191B2DEC2C230043082500AC00A0
:100A60003D2DD03084009F3085000008003A0319E6
:100A7000882C013A0319972CB82C21006E08250008
:100A8000A200C73084009F3085001200031D592D3D
:100A9000031020008C1903140030093D2100EB00E5
:100AA000EC016B082300C10021006C082300C20088
:100AB000692D031020008C1D03140030093D210016
:100AC000EB00EC016B082300C10021006C0823003F
:100AD000C20041082500AA0021006D082500AB00D6
:100AE0006400682C2000E30160086104031D7C2D74
:100AF0000130E0000030E10000306102A030031955
:100B00006002031C872D9F30E0000030E1003608B2
:100B1000031DA62D35080319A62D23003A08210030
:100B2000E600230039082100E5002300B90A031973
:100B3000BA0A0F3021006602A13003196502031CB6
:100B4000A62D2000B5012300B901BA01200036030B
:100B5000031D282E3508031D282E23003A082100E6
:100B6000E600230039082100E5002300B90A031933
:100B7000BA0A1F3021006602413003196502031CC6
:100B8000282E01302000B5002300B901BA01282E1B
:100B900021006E08E500E60165082000D80021006C
:100BA00066082000D900A030DA000030DB008A316E
:100BB0000722853140302100E7009D30E800200009
:100BC000580821006707E900200059082100683D06
:100BD000EA00690820006007840021006A082000FC
:100BE000613D85000008262E3808E3006308FE3EBC
:100BF0002100E500FF3003180030E6006608803A67
:100C0000803C031D062E650820006202031C372E5F
:100C10000230222E3708E3006308023E2100E5007F
:100C2000003003180130E6006608803AE7008030A3
:100C30006702031D1F2E2000620821006502031CAD
:100C4000372E03302000B500372E3808E300372E4A
:100C500020003508003A0319C82D013A0319F42D74
:100C6000033A03190A2E013A0319252E372E2000C4
:100C70006208023E2100E500003003180130E60062
:100C80006608803AE70080306702031D4B2E200083
:100C900063082100650203185A2E20003403031D47
:100CA000572E22000E128E12A030890B552E2000D6
:100CB000B4018B2E20006208FE3E2100E500FF30CB
:100CC00003180030E6006608803A803C031D6B2E56
:100CD0006508200063020318792E20003408031DE4
:100CE000772E22000E128E12A030890B752E013045
:100CF0007A2E03302000B4008B2E22000E16892E8F
:100D000022000E12852E22000E168E16992E22001B
:100D10000E128E12992E3408003A03197D2E013AD4
:100D20000319802E033A0319872E013A0319832EE3
:100D3000832E200062082500A400200063082500FF
:100D4000A500200035082500A60020003408250055
:100D5000A700080005302000B800A030B700B82E6A
:100D60000130B52E0230B52E04302100E000C72E30
:100D7000D03084009F3085000008003A0319B02E5F
:100D8000013A0319B22E033A0319B42EB02EE10131
:100D9000600861020318752F0130E200610820002D
:100DA000DC00DD015C08D8005D08D900A030DA0065
:100DB0000030DB008A310722863140302000DE001F
:100DC0009D30DF0058085E07E00059085F3DE100F4
:100DD0002100620820006007840061080318013EBA
:100DE00085000008380203181B2F2100610820002D
:100DF000DC00DD015C08D8005D08D900A030DA0015
:100E00000030DB008A310722863140302000DE00CE
:100E10009D30DF0058085E07E00059085F3DE100A3
:100E20002100620820006007840061080318013E69
:100E300085000008B800210061082000DC00DD0109
:100E40005C08D8005D08D900A030DA000030DB0073
:100E50008A310722863140302000DE009D30DF00DD
:100E600058085E07E00059085F3DE1002100620874
:100E700020006007840061080318013E8500000817
:100E8000E2003708620203186B2F2100610820007E
:100E9000DC00DD015C08D8005D08D900A030DA0074
:100EA0000030DB008A310722863140302000DE002E
:100EB0009D30DF0058085E07E00059085F3DE10003
:100EC0002100620820006007840061080318013EC9
:100ED00085000008B70001302100E2079F30620260
:100EE000031CCE2E0130E107C82EA13020003802AD
:100EF000031C7C2FA030B80005303702031808000F
:100F00000530B7000800893159218731730803196A
:100F100008003D00101D8F2F8931632187313D006E
:100F20008E180800101C972F8A31942287313D00BB
:100F3000100803307302031C08002200EA013D0080
:100F4000901D08000F082300C0003D000F087C39E9
:100F5000031DE72F8F18AE2F2030AF2F2430220033
:100F6000E4003D0090112200640886008701010C16
:100F7000890C0F390D3A031DF12FE3016308A03EE0
:100F8000860087010130873D6408023E84008501A8
:100F9000003F2000E200013FE30062088400630894
:100FA00085000008810022006408023E8600870157
:100FB0000130810741310318810A0130E30708300D
:100FC0006302031CBE2F8A3123228731F12F0430A4
:100FD0000F06031DF02F90118A3143228731F12F24
:100FE000901101302200EA0704306A020318080059
:100FF0009F2F640080010131890BFA2F0034080013
:1012A0002300BF0108008E31FB26080003340134FF
:1012B000013422006503031908003D008E1908005F
:1012C0008931A82108008731FF2789313D008E1020
:1012D0001211101D0800101169292000EC006C0388
:1012E000031D08008931BC21893189315021080052
:1012F0003D008E1D7E2989318F2189312200E50133
:1013000089315921080020006C086D040319080078
:10131000640001302000EC020030ED3B83293D00E9
:101320008E108E01FF302000EC00FF30ED0089317F
:101330008321F30108006400230015155530960041
:10134000AA30960095140000000023001511080033
:1013500022006503031DAF2989318F2189313D00AA
:101360008E011530910092018E158A319422013040
:10137000F3002200E50108002200E0011E303D00DC
:10138000990040302000AD00A030AE000030AF002A
:101390000830AC00AC172030B2000130B300403050
:1013A000B00008002000ED006D08EC00EC0DEC0D25
:1013B00021001D0820006C0683396C0621009D0069
:1013C0001D14F0300032890BE22921009D149D1874
:1013D000E7291D101C080800FB01FC01771CF429FB
:1013E0007908FB077A08FC3D0130F935FA0D890BC5
:1013F000F5290130F836F70C890BFA2977087804BB
:10140000031DEE297C08F8007B08F7000800200087
:10141000EC01ED01581C102A5A08EC075B08ED3D61
:101420000130DA35DB0D890B112A0130D936D80CA1
:10143000890B162A58085904031D0A2A6D08D90079
:101440006C08D80008002000A801F401A01F2B2A76
:10145000A0012200E7012000A41F322AA4010130CC
:101460002200E7002200E901E8012300B501B601EE
:101470003D000E128D313B258A31893153218A314D
:101480008D319D25080004307306031D522A230068
:1014900022083D00960016080319502A0530512AEB
:1014A0000330F30022006903031D08008C3131244E
:1014B0008A3102307406031D622A04302000A8001D
:1014C000A81708002000281B672A4830682A08301F
:1014D000A800A817080001302200E8003D0099018B
:1014E0009A019B019C019D019E019F012200E10147
:1014F00061086F3E86000130870081010130E107FD
:1015000061080319782A23002208F6007608893139
:101510006D218A3123002208031D912A0530F30032
:1015200008000630F30008000330F3003D00970187
:1015300090017B309200960199019A019B019C01D8
:101540009D019E019F01163098000E173D00901DD1
:10155000AC2A90116400A62A0E130E120430230048
:10156000AD0000308A31BE228A3101302200E7000E
:10157000E601F601003089316D2108002000EC0001
:1015800008302300AE004830AF000030B00020002B
:101590006C08031DD22A40302300AF000030B00099
:1015A0002030D42A24302300B1000030B2003108AA
:1015B0008600320887002D08C03F2E08C13F2F0843
:1015C000C23F3008C33F31088600320887008117C8
:1015D0000800413020006E02031CF02A4030EE006B
:1015E000D8016E0858020318052B5808203E8600C3
:1015F0000130870058086C07840000306D3D85007D
:10160000000881000130D807F12A6E08B10040308F
:10161000B0050310301F0314031C112B20003017DA
:10162000132B20003013B015B0170800FB01FC018C
:10163000770878040319432B0130FD00F81B282B91
:101640000130F735F80D890B212B0130FD071E2BDA
:101650000130FB35FC0D890B292B78087A02031D1C
:10166000332B77087902031C3A2B7708F9027808A4
:10167000FA3B7B140130F836F70C890B3B2B013019
:10168000FD02031D282B7C08F8007B08F7000800EA
:101690002000ED01EE01580859040319762B0130A2
:1016A000EC00D91B5B2B0130D835D90D890B542B9D
:1016B0000130EC07512B0130ED35EE0D890B5C2B21
:1016C00059085B02031D662B58085A02031C6D2B38
:1016D0005808DA025908DB3B6D140130D936D80CB2
:1016E000890B6E2B0130EC02031D5B2B6E08D900B9
:1016F0006D08D80008002200E0012000AC1B0800A3
:101700006E082D020318862B2D08EE002200E00142
:1017100020006E082200600203189F2B6008200042
:101720006C07860000306D3D870022006008A03EF7
:1017300084008501000881000130E007882B4030DB
:101740002000AD004030AC0503102C1F0314031C17
:10175000AC2B20002C17AE2B20002C13AC15AC1793
:10176000080020005A082300920020005908230096
:1017700091002400A001230012082400A1002300EE
:1017800011082400A200A3012000DD01230015148C
:101790000000000024302000DB000230DC005D0887
:1017A0005B07860000305C3D870023001308810042
:1017B000013091070030923D01302000DD072030DC
:1017C0005D02031CC62B2030EC000230ED004030DF
:1017D000EE008A31E9220800FC30210099009030A7
:1017E00027009B0021001A1FF22B1708C139183857
:1017F0009700893150218B31893178218B3121003B
:101800009513103024008C00183021008C0010300B
:1018100023008C0020008C010A3021008E0008304B
:1018200023008E0020008E0121009F0120309E00A9
:101830001D0883391C389D009D101D103F3020006D
:101840009805303098049811181518109C019B01C8
:101850009110210095129511073095040B118B12F0
:1018600008000830F2000030230036020830031967
:1018700035020318472C3508F2007408031D422C6A
:101880000130462C7403031D472C0230F40072080B
:101890002000A9007208EC00ED016C082300B502DD
:1018A00020006D082300B63B5030F0002200E618FF
:1018B0006C2C822C70088600870123003708840076
:1018C00038088500000881000130F0070130B707B3
:1018D0000030B83D0130F2027208031908005A2C9A
:1018E00070088600870123003708840038088500C7
:1018F000000881000130F0070130B7070030B83D23
:101900000130F202720803190800702C80302300A5
:101910002006031D0800CD2C01302200E800B03065
:101920002300B7009030B8001230B500D82C220840
:10193000031DD82C01302200E8006A302300B700D4
:101940009030B8002930B5000030B600D82C0130F6
:101950002200E800230022082000EC00ED01EC3515
:10196000ED0DC2306C07840010306D3D803885006D
:10197000003F2300B700013FB80037088400380853
:10198000850000082000EC00ED016C082300B50084
:1019900020006D082300B600D82C2308013A031953
:1019A0008C2C033A0319972C013A0319A72CD82C35
:1019B0002200E61408002000D001D1011F2D0130C3
:1019C0002200E800661C2C2D2000D0142C2D0130A4
:1019D0002200E8002C2D01302200E8002300240D15
:1019E000240D01392000D800D901D835D90DD835BA
:1019F000D90D230024080F392000DA00DB01DA3585
:101A0000DB0DDA35DB0DDA35DB0D2430DC000030A0
:101A1000DD005A085C07DE005B085D3DDF0058080A
:101A20005E07E00059085F3DE1006008F0007008C3
:101A300086008701011D2C2D0130D0002C2D2300A4
:101A400020081F39003A0319DF2C013A0319E72C4B
:101A5000033A0319EB2C2C2D22006803031D080008
:101A600000302300B8005030B7002200E6100230EA
:101A70002300B50008002300200E890C0339003A2A
:101A8000031D0800792D080001302200E800043011
:101A9000F30008008C31862408008A316B2208008C
:101AA00001302200E80076302300B7000030B80093
:101AB0002200E61001302300B50008008C31DB2441
:101AC00008008E310C26080001302200E8002300B7
:101AD00024086F3EB7000130572D01302200E80086
:101AE000230024086F3E8600013087002208810011
:101AF00008002108003A03195E2D013A0319612DEF
:101B0000023A0319612D063A0319442D033A0319C9
:101B10004A2D013A0319432D0F3A0319502D013A6A
:101B200003194D2D033A0319642D013A03196D2D44
:101B3000073A03199C2D9C2D080022006808031DFC
:101B4000B92D04302000A800A81704302300AD00F0
:101B500022006703031DB22D01308A31BE2222000C
:101B6000E701080000308A31BE2201302200E70080
:101B700008002300A01FE22D01302200E90023000D
:101B800036082702031DC62D350826020318CC2D62
:101B90002708B6002608B5008C3131248D31483035
:101BA0002300AD0001308A31BE228D3100308A31F0
:101BB000BE2200302000AB005030AA004830A80000
:101BC000A817080002302200E90004302300AD000D
:101BD00026082704031DEE2D4830AD0022006703C0
:101BE000031DF92D01308A31BE228D312200E7011B
:101BF000002E00308A31BE228D3101302200E700F4
:101C0000230026082704031D080000302000A90037
:101C10004830A800A817080023002203031D222E25
:101C200020081F39003A031D222E01302200E8004F
:101C3000033023002106031D202E22006614222ECD
:101C40002200661023002208031D080020081F3907
:101C5000023A031D080024080F39003A031908004E
:101C600001302200E8002300240D240D013920005A
:101C7000D800D901D835D90DD835D90D230024087D
:101C80000F392000DA00DB01DA35DB0DDA35DB0D48
:101C9000DA35DB0D2430DC000030DD005A085C074B
:101CA000DE005B085D3DDF0058085E07E000590874
:101CB0005F3DE1006008F000033023002106031DB2
:101CC0006B2E700886008701043081007008860042
:101CD000870181170800A41F732E700886008701F2
:101CE00040308100080070088600870108308100BC
:101CF00070088600870181170800C73084009F3074
:101D00008500120003198B2E031020008C1D031474
:101D10000030093D8F2E003020008C190130F80072
:101D2000C63084009F30850012000319E82E780821
:101D3000031D9E2E02302100ED00E82E2100ED0152
:101D4000E82E7808031D0800C23084009F3085000B
:101D50000008F7006F08770203180800C3308400FA
:101D60009F30850012000319BE2E0130ED00C330F4
:101D700084009F3085000008F50008000230ED0067
:101D8000C43084009F3085000008F5000800780307
:101D9000031DCC2EED01080075080319BE2E01307D
:101DA000F50208007508031DCF2E0330ED00C53085
:101DB00084009F3085000008F50008007508031DA9
:101DC000CF2E0430ED0008007803031D0800CA2E52
:101DD00021006D08003A0319A12E013A0319C72EFC
:101DE000033A0319D22E013A0319DE2E073A0319DA
:101DF000E42ECA2E0800230020081F39013A031DD3
:101E000008002408031D0800063021060319272FA7
:101E1000342F02302200E8007C302300B7009030DD
:101E2000B8000930232F02302200E8007603031D9A
:101E30001E2F93302300B7009030B8007603031DA7
:101E4000322F1D302300B5000030B600322F23089A
:101E5000213A0319092F033A0319132F013A0319E1
:101E6000322F322F2200E6142300200E890C033972
:101E7000013A031D0800682F8031022008008031DC
:101E80000320080002302200E8006E302300B70073
:101E90000130B8002200E61001302300B500080030
:101EA00002302200E800230023082200EE00080090
:101EB00002302200E8006D302300B7000130492FC6
:101EC00002302200E800230022082200ED00080072
:101ED0002108013A03193C2F033A0319422F013A12
:101EE0000319582F0A3A03193F2F033A0319502FA9
:101EF000013A0319602F7C2F08002100E000230025
:101F00002C082000DC00DD015C082100E10020003D
:101F10005D082100E2000430E3000030E4006308C3
:101F2000A83E8600013087006308A73E8400013088
:101F30008500000881006308A83E86000130870004
:101F400001082000DC00DD015C082100E107200021
:101F50005D082100E23D0130E3020030E43B63080C
:101F60006404031D8F2F05302000D8000030D900F5
:101F7000210062082000DB00210061082000DA0057
:101F80008B3148238F31200059082100E2002000C6
:101F900058082100E10060082300A8002100600823
:101FA0002000DC00DD0121006108083E2000DE0089
:101FB00000302100623D2000DF005D085F02031D4C
:101FC000E32F5C085E02031CFA2F21006108F83E33
:101FD0002000DC00FF302100623D2000DD002100F8
:101FE00060082000DE005D08031DF82F5C085E021B
:101FF0000318FD2F21006108080021006008080077
:10200000363403344F340034533400345234003403
:102010002D34003443340034443400344934003423
:1020200020340034533400345934003453340034F1
:1020300054340034453400344D34003420340034FA
:102040005634003465340034723400342E34003495
:10205000313400342E340034353400342E3400341E
:102060003434003462340034003400343434033403
:102070004F34003470340034653400346E3400342E
:1020800020340034533400346F3400347534003459
:102090007234003463340034653400342034003446
:1020A000773400342F340034203400345234003478
:1020B000693400346C3400346134003473340034D7
:1020C00073340034613400347234003475340034B5
:1020D0002E340034093402342934003401340134FC
:1020E000003480343234093404340034003402348F
:1020F0000334003400340034093421341134013401
:102100000034013422341D34003407340534813462
:1021100003344034003401340734053401340334CB
:1021200040340034013406340034FF3409340134BF
:10213000A1340134193401342934403415340034C5
:102140002634FF34003475340834953440348134F7
:102150000034193401342934403491340034C0340B
:1021600012340134003402340034003400340834B2
:10217000D83404343C3400340134013401340234A2
:1021800000340134C8349034363490340034903400
:08219000043403340934043463
:1030800000340034003400340034003400340034A0
:103090000034003400340034003400340034003490
:1030A0000034003400340034003400340034003480
:1030B0000034003400340034003400340034003470
:103AF000373437343734373437343A343D3440345C
:103B0000443447344A344E345134543458345B349A
:103B10005F346234663469346D34703474347734AD
:103B20007B347B347B347B347B347B347B347B341D
:103B30007B347B347B347B347B347B347B347B340D
:103B40007B347B347B347B347B347B347B347B34FD
:103B50007B347B347B347B347B347B347B347B34ED
:103B60007B347B347B347B347B347B347B347B34DD
:103B70007B347734743471346D346A34673463342D
:103B800060345D345A345A345A345A345A345A34BC
:103B90005A345A345A345A345A345A345A345A34B5
:103BA0005A345A345A345A345A345A345A345A34A5
:103BB0005A345A345A345A345A345A345A345A3495
:103BC000373437343734373437343734373437349D
:103BD000373437343734373437343734373437348D
:103BE000373437343734373437343734373437347D
:103BF000373437343734373437343734373437346D
:103C0000373437343734373437343734373437345C
:103C1000373437343734373437343734373437344C
:103C2000373437343734373437343734373437343C
:103C3000373437343734373437343A343D3440341A
:103C4000443447344A344E345134543458345B3459
:103C50005F346234663469346D347034743477346C
:103C60007B347B347B347B347B347B347B347B34DC
:103C70007B347B347B347B347B347B347B347B34CC
:103C80007B347B347B347B347B347B347B347B34BC
:103C90007B347B347B347B347B347B347B347B34AC
:103CA0007B347B347B347B347B347B347B347B349C
:103CB0007B347734743471346D346A3467346334EC
:103CC00060345D345A345A345A345A345A345A347B
:103CD0005A345A345A345A345A345A345A345A3474
:103CE0005A345A345A345A345A345A345A345A3464
:103CF0005A345A345A345A345A345A345A345A3454
:103D0000373437343734373437343734373437345B
:103D1000373437343734373437343734373437344B
:103D2000373437343734373437343734373437343B
:103D3000373437343734373437343734373437342B
:103D4000373437343734373437343734373437341B
:103D5000373437343734373437343734373437340B
:103D600037343734373437343734373437343734FB
:103D7000373437343734373437343A343D344034D9
:103D8000443447344A344E345134543458345B3418
:103D90005F346234663469346D347034743477342B
:103DA0007B347B347B347B347B347B347B347B349B
:103DB0007B347B347B347B347B347B347B347B348B
:103DC0007B347B347B347B347B347B347B347B347B
:103DD0007B347B347B347B347B347B347B347B346B
:103DE0007B347B347B347B347B347B347B347B345B
:103DF0007B347734743471346D346A3467346334AB
:103E000060345D345A345A345A345A345A345A3439
:103E10005A345A345A345A345A345A345A345A3432
:103E20005A345A345A345A345A345A345A345A3422
:103E30005A345A345A345A345A345A345A345A3412
:103E4000373437343734373437343734373437341A
:103E5000373437343734373437343734373437340A
:103E600037343734373437343734373437343734FA
:103E700037343734373437343734373437343734EA
:103E800037343734373437343734373437343734DA
:103E900037343734373437343734373437343734CA
:103EA00037343734373437343734373437343734BA
:103EB000373437343734373437343A343D34403498
:103EC000443447344A344E345134543458345B34D7
:103ED0005F346234663469346D34703474347734EA
:103EE0007B347B347B347B347B347B347B347B345A
:103EF0007B347B347B347B347B347B347B347B344A
:103F00007B347B347B347B347B347B347B347B3439
:103F10007B347B347B347B347B347B347B347B3429
:103F20007B347B347B347B347B347B347B347B3419
:103F30007B347734743471346D346A346734633469
:103F400060345D345A345A345A345A345A345A34F8
:103F50005A345A345A345A345A345A345A345A34F1
:103F60005A345A345A345A345A345A345A345A34E1
:103F70005A345A345A345A345A345A345A345A34D1
:103F800001343634963400341834B43400340034F8
:103F9000783400343E344934023424340A34003452
:103FA000013440348034C0340034003400340034F0
:103FB0000034003400340034003400340034003461
:103FC0000034003400340034003400340034003451
:103FD0000034003400340034003400340034003441
:103FE0000034003400340034003400340034003431
:103FF0000034003400340034003400340034003421
:020000040001F9
:08000000FF3FFF3FFF3FFF3F00
:04000E009C0FEF1F35
:00000001FF
